{
  "contractName": "Books",
  "abi": [
    {
      "inputs": [],
      "stateMutability": "nonpayable",
      "type": "constructor"
    },
    {
      "anonymous": false,
      "inputs": [
        {
          "indexed": true,
          "internalType": "address",
          "name": "owner",
          "type": "address"
        },
        {
          "indexed": true,
          "internalType": "address",
          "name": "approved",
          "type": "address"
        },
        {
          "indexed": true,
          "internalType": "uint256",
          "name": "tokenId",
          "type": "uint256"
        }
      ],
      "name": "Approval",
      "type": "event"
    },
    {
      "anonymous": false,
      "inputs": [
        {
          "indexed": true,
          "internalType": "address",
          "name": "owner",
          "type": "address"
        },
        {
          "indexed": true,
          "internalType": "address",
          "name": "operator",
          "type": "address"
        },
        {
          "indexed": false,
          "internalType": "bool",
          "name": "approved",
          "type": "bool"
        }
      ],
      "name": "ApprovalForAll",
      "type": "event"
    },
    {
      "anonymous": false,
      "inputs": [
        {
          "indexed": true,
          "internalType": "address",
          "name": "from",
          "type": "address"
        },
        {
          "indexed": true,
          "internalType": "address",
          "name": "to",
          "type": "address"
        },
        {
          "indexed": true,
          "internalType": "uint256",
          "name": "tokenId",
          "type": "uint256"
        }
      ],
      "name": "Transfer",
      "type": "event"
    },
    {
      "anonymous": false,
      "inputs": [
        {
          "indexed": false,
          "internalType": "string",
          "name": "name",
          "type": "string"
        },
        {
          "indexed": false,
          "internalType": "uint256",
          "name": "id",
          "type": "uint256"
        },
        {
          "indexed": false,
          "internalType": "uint256",
          "name": "price",
          "type": "uint256"
        },
        {
          "indexed": false,
          "internalType": "address",
          "name": "owner",
          "type": "address"
        },
        {
          "indexed": false,
          "internalType": "string",
          "name": "url",
          "type": "string"
        }
      ],
      "name": "bookCreated",
      "type": "event"
    },
    {
      "inputs": [],
      "name": "admin",
      "outputs": [
        {
          "internalType": "address",
          "name": "",
          "type": "address"
        }
      ],
      "stateMutability": "view",
      "type": "function",
      "constant": true
    },
    {
      "inputs": [
        {
          "internalType": "address",
          "name": "to",
          "type": "address"
        },
        {
          "internalType": "uint256",
          "name": "tokenId",
          "type": "uint256"
        }
      ],
      "name": "approve",
      "outputs": [],
      "stateMutability": "nonpayable",
      "type": "function"
    },
    {
      "inputs": [
        {
          "internalType": "address",
          "name": "owner",
          "type": "address"
        }
      ],
      "name": "balanceOf",
      "outputs": [
        {
          "internalType": "uint256",
          "name": "",
          "type": "uint256"
        }
      ],
      "stateMutability": "view",
      "type": "function",
      "constant": true
    },
    {
      "inputs": [
        {
          "internalType": "address",
          "name": "",
          "type": "address"
        },
        {
          "internalType": "uint256",
          "name": "",
          "type": "uint256"
        }
      ],
      "name": "booksByOwner",
      "outputs": [
        {
          "internalType": "string",
          "name": "title",
          "type": "string"
        },
        {
          "internalType": "uint256",
          "name": "id",
          "type": "uint256"
        },
        {
          "internalType": "uint256",
          "name": "price",
          "type": "uint256"
        },
        {
          "internalType": "address",
          "name": "owner",
          "type": "address"
        },
        {
          "internalType": "string",
          "name": "url",
          "type": "string"
        }
      ],
      "stateMutability": "view",
      "type": "function",
      "constant": true
    },
    {
      "inputs": [
        {
          "internalType": "uint256",
          "name": "tokenId",
          "type": "uint256"
        }
      ],
      "name": "getApproved",
      "outputs": [
        {
          "internalType": "address",
          "name": "",
          "type": "address"
        }
      ],
      "stateMutability": "view",
      "type": "function",
      "constant": true
    },
    {
      "inputs": [
        {
          "internalType": "address",
          "name": "owner",
          "type": "address"
        },
        {
          "internalType": "address",
          "name": "operator",
          "type": "address"
        }
      ],
      "name": "isApprovedForAll",
      "outputs": [
        {
          "internalType": "bool",
          "name": "",
          "type": "bool"
        }
      ],
      "stateMutability": "view",
      "type": "function",
      "constant": true
    },
    {
      "inputs": [],
      "name": "name",
      "outputs": [
        {
          "internalType": "string",
          "name": "",
          "type": "string"
        }
      ],
      "stateMutability": "view",
      "type": "function",
      "constant": true
    },
    {
      "inputs": [
        {
          "internalType": "uint256",
          "name": "tokenId",
          "type": "uint256"
        }
      ],
      "name": "ownerOf",
      "outputs": [
        {
          "internalType": "address",
          "name": "",
          "type": "address"
        }
      ],
      "stateMutability": "view",
      "type": "function",
      "constant": true
    },
    {
      "inputs": [
        {
          "internalType": "address",
          "name": "from",
          "type": "address"
        },
        {
          "internalType": "address",
          "name": "to",
          "type": "address"
        },
        {
          "internalType": "uint256",
          "name": "tokenId",
          "type": "uint256"
        }
      ],
      "name": "safeTransferFrom",
      "outputs": [],
      "stateMutability": "nonpayable",
      "type": "function"
    },
    {
      "inputs": [
        {
          "internalType": "address",
          "name": "from",
          "type": "address"
        },
        {
          "internalType": "address",
          "name": "to",
          "type": "address"
        },
        {
          "internalType": "uint256",
          "name": "tokenId",
          "type": "uint256"
        },
        {
          "internalType": "bytes",
          "name": "_data",
          "type": "bytes"
        }
      ],
      "name": "safeTransferFrom",
      "outputs": [],
      "stateMutability": "nonpayable",
      "type": "function"
    },
    {
      "inputs": [
        {
          "internalType": "address",
          "name": "operator",
          "type": "address"
        },
        {
          "internalType": "bool",
          "name": "approved",
          "type": "bool"
        }
      ],
      "name": "setApprovalForAll",
      "outputs": [],
      "stateMutability": "nonpayable",
      "type": "function"
    },
    {
      "inputs": [
        {
          "internalType": "bytes4",
          "name": "interfaceId",
          "type": "bytes4"
        }
      ],
      "name": "supportsInterface",
      "outputs": [
        {
          "internalType": "bool",
          "name": "",
          "type": "bool"
        }
      ],
      "stateMutability": "view",
      "type": "function",
      "constant": true
    },
    {
      "inputs": [],
      "name": "symbol",
      "outputs": [
        {
          "internalType": "string",
          "name": "",
          "type": "string"
        }
      ],
      "stateMutability": "view",
      "type": "function",
      "constant": true
    },
    {
      "inputs": [
        {
          "internalType": "uint256",
          "name": "index",
          "type": "uint256"
        }
      ],
      "name": "tokenByIndex",
      "outputs": [
        {
          "internalType": "uint256",
          "name": "",
          "type": "uint256"
        }
      ],
      "stateMutability": "view",
      "type": "function",
      "constant": true
    },
    {
      "inputs": [
        {
          "internalType": "address",
          "name": "owner",
          "type": "address"
        },
        {
          "internalType": "uint256",
          "name": "index",
          "type": "uint256"
        }
      ],
      "name": "tokenOfOwnerByIndex",
      "outputs": [
        {
          "internalType": "uint256",
          "name": "",
          "type": "uint256"
        }
      ],
      "stateMutability": "view",
      "type": "function",
      "constant": true
    },
    {
      "inputs": [
        {
          "internalType": "uint256",
          "name": "",
          "type": "uint256"
        }
      ],
      "name": "tokenToUrl",
      "outputs": [
        {
          "internalType": "string",
          "name": "",
          "type": "string"
        }
      ],
      "stateMutability": "view",
      "type": "function",
      "constant": true
    },
    {
      "inputs": [
        {
          "internalType": "uint256",
          "name": "tokenId",
          "type": "uint256"
        }
      ],
      "name": "tokenURI",
      "outputs": [
        {
          "internalType": "string",
          "name": "",
          "type": "string"
        }
      ],
      "stateMutability": "view",
      "type": "function",
      "constant": true
    },
    {
      "inputs": [],
      "name": "totalSupply",
      "outputs": [
        {
          "internalType": "uint256",
          "name": "",
          "type": "uint256"
        }
      ],
      "stateMutability": "view",
      "type": "function",
      "constant": true
    },
    {
      "inputs": [
        {
          "internalType": "address",
          "name": "from",
          "type": "address"
        },
        {
          "internalType": "address",
          "name": "to",
          "type": "address"
        },
        {
          "internalType": "uint256",
          "name": "tokenId",
          "type": "uint256"
        }
      ],
      "name": "transferFrom",
      "outputs": [],
      "stateMutability": "nonpayable",
      "type": "function"
    },
    {
      "inputs": [
        {
          "internalType": "string",
          "name": "_title",
          "type": "string"
        },
        {
          "internalType": "uint256",
          "name": "_price",
          "type": "uint256"
        },
        {
          "internalType": "string",
          "name": "_url",
          "type": "string"
        }
      ],
      "name": "createNewBook",
      "outputs": [
        {
          "components": [
            {
              "internalType": "string",
              "name": "title",
              "type": "string"
            },
            {
              "internalType": "uint256",
              "name": "id",
              "type": "uint256"
            },
            {
              "internalType": "uint256",
              "name": "price",
              "type": "uint256"
            },
            {
              "internalType": "address",
              "name": "owner",
              "type": "address"
            },
            {
              "internalType": "string",
              "name": "url",
              "type": "string"
            }
          ],
          "internalType": "struct Books.BookStruct",
          "name": "",
          "type": "tuple"
        }
      ],
      "stateMutability": "nonpayable",
      "type": "function"
    }
  ],
  "bytecode": "0x60806040523480156200001157600080fd5b506040518060400160405280600581526020017f426f6f6b730000000000000000000000000000000000000000000000000000008152506040518060400160405280600481526020017f424f4f4b00000000000000000000000000000000000000000000000000000000815250816000908051906020019062000096929190620000b8565b508060019080519060200190620000af929190620000b8565b505050620001cd565b828054620000c69062000168565b90600052602060002090601f016020900481019282620000ea576000855562000136565b82601f106200010557805160ff191683800117855562000136565b8280016001018555821562000136579182015b828111156200013557825182559160200191906001019062000118565b5b50905062000145919062000149565b5090565b5b80821115620001645760008160009055506001016200014a565b5090565b600060028204905060018216806200018157607f821691505b602082108114156200019857620001976200019e565b5b50919050565b7f4e487b7100000000000000000000000000000000000000000000000000000000600052602260045260246000fd5b6135c180620001dd6000396000f3fe608060405234801561001057600080fd5b506004361061012c5760003560e01c806367edf15a116100ad578063b191af6011610071578063b191af601461037b578063b88d4fde146103af578063c87b56dd146103cb578063e985e9c5146103fb578063f851a4401461042b5761012c565b806367edf15a146102b157806370a08231146102e157806395d89b411461031157806397afc98e1461032f578063a22cb4651461035f5761012c565b806323b872dd116100f457806323b872dd146101e95780632f745c591461020557806342842e0e146102355780634f6ccce7146102515780636352211e146102815761012c565b806301ffc9a71461013157806306fdde0314610161578063081812fc1461017f578063095ea7b3146101af57806318160ddd146101cb575b600080fd5b61014b6004803603810190610146919061256e565b610449565b6040516101589190612e85565b60405180910390f35b6101696104c3565b6040516101769190612ea0565b60405180910390f35b6101996004803603810190610194919061263f565b610555565b6040516101a69190612e1e565b60405180910390f35b6101c960048036038101906101c49190612532565b6105da565b005b6101d36106f2565b6040516101e09190613145565b60405180910390f35b61020360048036038101906101fe919061242c565b6106ff565b005b61021f600480360381019061021a9190612532565b61075f565b60405161022c9190613145565b60405180910390f35b61024f600480360381019061024a919061242c565b610804565b005b61026b6004803603810190610266919061263f565b610824565b6040516102789190613145565b60405180910390f35b61029b6004803603810190610296919061263f565b6108bb565b6040516102a89190612e1e565b60405180910390f35b6102cb60048036038101906102c6919061263f565b61096d565b6040516102d89190612ea0565b60405180910390f35b6102fb60048036038101906102f691906123c7565b610a0d565b6040516103089190613145565b60405180910390f35b610319610ac5565b6040516103269190612ea0565b60405180910390f35b610349600480360381019061034491906125c0565b610b57565b6040516103569190613123565b60405180910390f35b610379600480360381019061037491906124f6565b610ced565b005b61039560048036038101906103909190612532565b610e6e565b6040516103a6959493929190612ec2565b60405180910390f35b6103c960048036038101906103c4919061247b565b610fe1565b005b6103e560048036038101906103e0919061263f565b611043565b6040516103f29190612ea0565b60405180910390f35b610415600480360381019061041091906123f0565b6110ea565b6040516104229190612e85565b60405180910390f35b61043361117e565b6040516104409190612e1e565b60405180910390f35b60007f780e9d63000000000000000000000000000000000000000000000000000000007bffffffffffffffffffffffffffffffffffffffffffffffffffffffff1916827bffffffffffffffffffffffffffffffffffffffffffffffffffffffff191614806104bc57506104bb826111a4565b5b9050919050565b6060600080546104d2906133b6565b80601f01602080910402602001604051908101604052809291908181526020018280546104fe906133b6565b801561054b5780601f106105205761010080835404028352916020019161054b565b820191906000526020600020905b81548152906001019060200180831161052e57829003601f168201915b5050505050905090565b600061056082611286565b61059f576040517f08c379a000000000000000000000000000000000000000000000000000000000815260040161059690613063565b60405180910390fd5b6004600083815260200190815260200160002060009054906101000a900473ffffffffffffffffffffffffffffffffffffffff169050919050565b60006105e5826108bb565b90508073ffffffffffffffffffffffffffffffffffffffff168373ffffffffffffffffffffffffffffffffffffffff161415610656576040517f08c379a000000000000000000000000000000000000000000000000000000000815260040161064d906130c3565b60405180910390fd5b8073ffffffffffffffffffffffffffffffffffffffff166106756112f2565b73ffffffffffffffffffffffffffffffffffffffff1614806106a457506106a38161069e6112f2565b6110ea565b5b6106e3576040517f08c379a00000000000000000000000000000000000000000000000000000000081526004016106da90612fe3565b60405180910390fd5b6106ed83836112fa565b505050565b6000600880549050905090565b61071061070a6112f2565b826113b3565b61074f576040517f08c379a0000000000000000000000000000000000000000000000000000000008152600401610746906130e3565b60405180910390fd5b61075a838383611491565b505050565b600061076a83610a0d565b82106107ab576040517f08c379a00000000000000000000000000000000000000000000000000000000081526004016107a290612f23565b60405180910390fd5b600660008473ffffffffffffffffffffffffffffffffffffffff1673ffffffffffffffffffffffffffffffffffffffff168152602001908152602001600020600083815260200190815260200160002054905092915050565b61081f83838360405180602001604052806000815250610fe1565b505050565b600061082e6106f2565b821061086f576040517f08c379a000000000000000000000000000000000000000000000000000000000815260040161086690613103565b60405180910390fd5b600882815481106108a9577f4e487b7100000000000000000000000000000000000000000000000000000000600052603260045260246000fd5b90600052602060002001549050919050565b6000806002600084815260200190815260200160002060009054906101000a900473ffffffffffffffffffffffffffffffffffffffff169050600073ffffffffffffffffffffffffffffffffffffffff168173ffffffffffffffffffffffffffffffffffffffff161415610964576040517f08c379a000000000000000000000000000000000000000000000000000000000815260040161095b90613023565b60405180910390fd5b80915050919050565b600d602052806000526040600020600091509050805461098c906133b6565b80601f01602080910402602001604051908101604052809291908181526020018280546109b8906133b6565b8015610a055780601f106109da57610100808354040283529160200191610a05565b820191906000526020600020905b8154815290600101906020018083116109e857829003601f168201915b505050505081565b60008073ffffffffffffffffffffffffffffffffffffffff168273ffffffffffffffffffffffffffffffffffffffff161415610a7e576040517f08c379a0000000000000000000000000000000000000000000000000000000008152600401610a7590613003565b60405180910390fd5b600360008373ffffffffffffffffffffffffffffffffffffffff1673ffffffffffffffffffffffffffffffffffffffff168152602001908152602001600020549050919050565b606060018054610ad4906133b6565b80601f0160208091040260200160405190810160405280929190818152602001828054610b00906133b6565b8015610b4d5780601f10610b2257610100808354040283529160200191610b4d565b820191906000526020600020905b815481529060010190602001808311610b3057829003601f168201915b5050505050905090565b610b5f6121a6565b610b6b30600b546116ed565b60006040518060a00160405280868152602001600b5481526020018581526020013073ffffffffffffffffffffffffffffffffffffffff16815260200184815250905080600c60003073ffffffffffffffffffffffffffffffffffffffff1673ffffffffffffffffffffffffffffffffffffffff1681526020019081526020016000206000600b5481526020019081526020016000206000820151816000019080519060200190610c1d9291906121eb565b50602082015181600101556040820151816002015560608201518160030160006101000a81548173ffffffffffffffffffffffffffffffffffffffff021916908373ffffffffffffffffffffffffffffffffffffffff1602179055506080820151816004019080519060200190610c959291906121eb565b5090505082600d6000600b5481526020019081526020016000209080519060200190610cc29291906121eb565b506001600b6000828254610cd69190613245565b925050819055600b81905550809150509392505050565b610cf56112f2565b73ffffffffffffffffffffffffffffffffffffffff168273ffffffffffffffffffffffffffffffffffffffff161415610d63576040517f08c379a0000000000000000000000000000000000000000000000000000000008152600401610d5a90612fa3565b60405180910390fd5b8060056000610d706112f2565b73ffffffffffffffffffffffffffffffffffffffff1673ffffffffffffffffffffffffffffffffffffffff16815260200190815260200160002060008473ffffffffffffffffffffffffffffffffffffffff1673ffffffffffffffffffffffffffffffffffffffff16815260200190815260200160002060006101000a81548160ff0219169083151502179055508173ffffffffffffffffffffffffffffffffffffffff16610e1d6112f2565b73ffffffffffffffffffffffffffffffffffffffff167f17307eab39ab6107e8899845ad3d59bd9653f200f220920489ca2b5937696c3183604051610e629190612e85565b60405180910390a35050565b600c60205281600052604060002060205280600052604060002060009150915050806000018054610e9e906133b6565b80601f0160208091040260200160405190810160405280929190818152602001828054610eca906133b6565b8015610f175780601f10610eec57610100808354040283529160200191610f17565b820191906000526020600020905b815481529060010190602001808311610efa57829003601f168201915b5050505050908060010154908060020154908060030160009054906101000a900473ffffffffffffffffffffffffffffffffffffffff1690806004018054610f5e906133b6565b80601f0160208091040260200160405190810160405280929190818152602001828054610f8a906133b6565b8015610fd75780601f10610fac57610100808354040283529160200191610fd7565b820191906000526020600020905b815481529060010190602001808311610fba57829003601f168201915b5050505050905085565b610ff2610fec6112f2565b836113b3565b611031576040517f08c379a0000000000000000000000000000000000000000000000000000000008152600401611028906130e3565b60405180910390fd5b61103d848484846118bb565b50505050565b606061104e82611286565b61108d576040517f08c379a0000000000000000000000000000000000000000000000000000000008152600401611084906130a3565b60405180910390fd5b6000611097611917565b905060008151116110b757604051806020016040528060008152506110e2565b806110c184611954565b6040516020016110d2929190612dfa565b6040516020818303038152906040525b915050919050565b6000600560008473ffffffffffffffffffffffffffffffffffffffff1673ffffffffffffffffffffffffffffffffffffffff16815260200190815260200160002060008373ffffffffffffffffffffffffffffffffffffffff1673ffffffffffffffffffffffffffffffffffffffff16815260200190815260200160002060009054906101000a900460ff16905092915050565b600a60009054906101000a900473ffffffffffffffffffffffffffffffffffffffff1681565b60007f80ac58cd000000000000000000000000000000000000000000000000000000007bffffffffffffffffffffffffffffffffffffffffffffffffffffffff1916827bffffffffffffffffffffffffffffffffffffffffffffffffffffffff1916148061126f57507f5b5e139f000000000000000000000000000000000000000000000000000000007bffffffffffffffffffffffffffffffffffffffffffffffffffffffff1916827bffffffffffffffffffffffffffffffffffffffffffffffffffffffff1916145b8061127f575061127e82611b01565b5b9050919050565b60008073ffffffffffffffffffffffffffffffffffffffff166002600084815260200190815260200160002060009054906101000a900473ffffffffffffffffffffffffffffffffffffffff1673ffffffffffffffffffffffffffffffffffffffff1614159050919050565b600033905090565b816004600083815260200190815260200160002060006101000a81548173ffffffffffffffffffffffffffffffffffffffff021916908373ffffffffffffffffffffffffffffffffffffffff160217905550808273ffffffffffffffffffffffffffffffffffffffff1661136d836108bb565b73ffffffffffffffffffffffffffffffffffffffff167f8c5be1e5ebec7d5bd14f71427d1e84f3dd0314c0f7b2291e5b200ac8c7c3b92560405160405180910390a45050565b60006113be82611286565b6113fd576040517f08c379a00000000000000000000000000000000000000000000000000000000081526004016113f490612fc3565b60405180910390fd5b6000611408836108bb565b90508073ffffffffffffffffffffffffffffffffffffffff168473ffffffffffffffffffffffffffffffffffffffff16148061147757508373ffffffffffffffffffffffffffffffffffffffff1661145f84610555565b73ffffffffffffffffffffffffffffffffffffffff16145b80611488575061148781856110ea565b5b91505092915050565b8273ffffffffffffffffffffffffffffffffffffffff166114b1826108bb565b73ffffffffffffffffffffffffffffffffffffffff1614611507576040517f08c379a00000000000000000000000000000000000000000000000000000000081526004016114fe90613083565b60405180910390fd5b600073ffffffffffffffffffffffffffffffffffffffff168273ffffffffffffffffffffffffffffffffffffffff161415611577576040517f08c379a000000000000000000000000000000000000000000000000000000000815260040161156e90612f83565b60405180910390fd5b611582838383611b6b565b61158d6000826112fa565b6001600360008573ffffffffffffffffffffffffffffffffffffffff1673ffffffffffffffffffffffffffffffffffffffff16815260200190815260200160002060008282546115dd91906132cc565b925050819055506001600360008473ffffffffffffffffffffffffffffffffffffffff1673ffffffffffffffffffffffffffffffffffffffff16815260200190815260200160002060008282546116349190613245565b92505081905550816002600083815260200190815260200160002060006101000a81548173ffffffffffffffffffffffffffffffffffffffff021916908373ffffffffffffffffffffffffffffffffffffffff160217905550808273ffffffffffffffffffffffffffffffffffffffff168473ffffffffffffffffffffffffffffffffffffffff167fddf252ad1be2c89b69c2b068fc378daa952ba7f163c4a11628f55a4df523b3ef60405160405180910390a4505050565b600073ffffffffffffffffffffffffffffffffffffffff168273ffffffffffffffffffffffffffffffffffffffff16141561175d576040517f08c379a000000000000000000000000000000000000000000000000000000000815260040161175490613043565b60405180910390fd5b61176681611286565b156117a6576040517f08c379a000000000000000000000000000000000000000000000000000000000815260040161179d90612f63565b60405180910390fd5b6117b260008383611b6b565b6001600360008473ffffffffffffffffffffffffffffffffffffffff1673ffffffffffffffffffffffffffffffffffffffff16815260200190815260200160002060008282546118029190613245565b92505081905550816002600083815260200190815260200160002060006101000a81548173ffffffffffffffffffffffffffffffffffffffff021916908373ffffffffffffffffffffffffffffffffffffffff160217905550808273ffffffffffffffffffffffffffffffffffffffff16600073ffffffffffffffffffffffffffffffffffffffff167fddf252ad1be2c89b69c2b068fc378daa952ba7f163c4a11628f55a4df523b3ef60405160405180910390a45050565b6118c6848484611491565b6118d284848484611c7f565b611911576040517f08c379a000000000000000000000000000000000000000000000000000000000815260040161190890612f43565b60405180910390fd5b50505050565b60606040518060400160405280601581526020017f68747470733a2f2f697066732e696f2f697066732f0000000000000000000000815250905090565b6060600082141561199c576040518060400160405280600181526020017f30000000000000000000000000000000000000000000000000000000000000008152509050611afc565b600082905060005b600082146119ce5780806119b7906133e8565b915050600a826119c7919061329b565b91506119a4565b60008167ffffffffffffffff811115611a10577f4e487b7100000000000000000000000000000000000000000000000000000000600052604160045260246000fd5b6040519080825280601f01601f191660200182016040528015611a425781602001600182028036833780820191505090505b5090505b60008514611af557600182611a5b91906132cc565b9150600a85611a6a9190613431565b6030611a769190613245565b60f81b818381518110611ab2577f4e487b7100000000000000000000000000000000000000000000000000000000600052603260045260246000fd5b60200101907effffffffffffffffffffffffffffffffffffffffffffffffffffffffffffff1916908160001a905350600a85611aee919061329b565b9450611a46565b8093505050505b919050565b60007f01ffc9a7000000000000000000000000000000000000000000000000000000007bffffffffffffffffffffffffffffffffffffffffffffffffffffffff1916827bffffffffffffffffffffffffffffffffffffffffffffffffffffffff1916149050919050565b611b76838383611e16565b600073ffffffffffffffffffffffffffffffffffffffff168373ffffffffffffffffffffffffffffffffffffffff161415611bb957611bb481611e1b565b611bf8565b8173ffffffffffffffffffffffffffffffffffffffff168373ffffffffffffffffffffffffffffffffffffffff1614611bf757611bf68382611e64565b5b5b600073ffffffffffffffffffffffffffffffffffffffff168273ffffffffffffffffffffffffffffffffffffffff161415611c3b57611c3681611fd1565b611c7a565b8273ffffffffffffffffffffffffffffffffffffffff168273ffffffffffffffffffffffffffffffffffffffff1614611c7957611c788282612114565b5b5b505050565b6000611ca08473ffffffffffffffffffffffffffffffffffffffff16612193565b15611e09578373ffffffffffffffffffffffffffffffffffffffff1663150b7a02611cc96112f2565b8786866040518563ffffffff1660e01b8152600401611ceb9493929190612e39565b602060405180830381600087803b158015611d0557600080fd5b505af1925050508015611d3657506040513d601f19601f82011682018060405250810190611d339190612597565b60015b611db9573d8060008114611d66576040519150601f19603f3d011682016040523d82523d6000602084013e611d6b565b606091505b50600081511415611db1576040517f08c379a0000000000000000000000000000000000000000000000000000000008152600401611da890612f43565b60405180910390fd5b805181602001fd5b63150b7a0260e01b7bffffffffffffffffffffffffffffffffffffffffffffffffffffffff1916817bffffffffffffffffffffffffffffffffffffffffffffffffffffffff191614915050611e0e565b600190505b949350505050565b505050565b6008805490506009600083815260200190815260200160002081905550600881908060018154018082558091505060019003906000526020600020016000909190919091505550565b60006001611e7184610a0d565b611e7b91906132cc565b9050600060076000848152602001908152602001600020549050818114611f60576000600660008673ffffffffffffffffffffffffffffffffffffffff1673ffffffffffffffffffffffffffffffffffffffff168152602001908152602001600020600084815260200190815260200160002054905080600660008773ffffffffffffffffffffffffffffffffffffffff1673ffffffffffffffffffffffffffffffffffffffff168152602001908152602001600020600084815260200190815260200160002081905550816007600083815260200190815260200160002081905550505b6007600084815260200190815260200160002060009055600660008573ffffffffffffffffffffffffffffffffffffffff1673ffffffffffffffffffffffffffffffffffffffff16815260200190815260200160002060008381526020019081526020016000206000905550505050565b60006001600880549050611fe591906132cc565b905060006009600084815260200190815260200160002054905060006008838154811061203b577f4e487b7100000000000000000000000000000000000000000000000000000000600052603260045260246000fd5b906000526020600020015490508060088381548110612083577f4e487b7100000000000000000000000000000000000000000000000000000000600052603260045260246000fd5b9060005260206000200181905550816009600083815260200190815260200160002081905550600960008581526020019081526020016000206000905560088054806120f8577f4e487b7100000000000000000000000000000000000000000000000000000000600052603160045260246000fd5b6001900381819060005260206000200160009055905550505050565b600061211f83610a0d565b905081600660008573ffffffffffffffffffffffffffffffffffffffff1673ffffffffffffffffffffffffffffffffffffffff168152602001908152602001600020600083815260200190815260200160002081905550806007600084815260200190815260200160002081905550505050565b600080823b905060008111915050919050565b6040518060a00160405280606081526020016000815260200160008152602001600073ffffffffffffffffffffffffffffffffffffffff168152602001606081525090565b8280546121f7906133b6565b90600052602060002090601f0160209004810192826122195760008555612260565b82601f1061223257805160ff1916838001178555612260565b82800160010185558215612260579182015b8281111561225f578251825591602001919060010190612244565b5b50905061226d9190612271565b5090565b5b8082111561228a576000816000905550600101612272565b5090565b60006122a161229c84613191565b613160565b9050828152602081018484840111156122b957600080fd5b6122c4848285613374565b509392505050565b60006122df6122da846131c1565b613160565b9050828152602081018484840111156122f757600080fd5b612302848285613374565b509392505050565b6000813590506123198161352f565b92915050565b60008135905061232e81613546565b92915050565b6000813590506123438161355d565b92915050565b6000815190506123588161355d565b92915050565b600082601f83011261236f57600080fd5b813561237f84826020860161228e565b91505092915050565b600082601f83011261239957600080fd5b81356123a98482602086016122cc565b91505092915050565b6000813590506123c181613574565b92915050565b6000602082840312156123d957600080fd5b60006123e78482850161230a565b91505092915050565b6000806040838503121561240357600080fd5b60006124118582860161230a565b92505060206124228582860161230a565b9150509250929050565b60008060006060848603121561244157600080fd5b600061244f8682870161230a565b93505060206124608682870161230a565b9250506040612471868287016123b2565b9150509250925092565b6000806000806080858703121561249157600080fd5b600061249f8782880161230a565b94505060206124b08782880161230a565b93505060406124c1878288016123b2565b925050606085013567ffffffffffffffff8111156124de57600080fd5b6124ea8782880161235e565b91505092959194509250565b6000806040838503121561250957600080fd5b60006125178582860161230a565b92505060206125288582860161231f565b9150509250929050565b6000806040838503121561254557600080fd5b60006125538582860161230a565b9250506020612564858286016123b2565b9150509250929050565b60006020828403121561258057600080fd5b600061258e84828501612334565b91505092915050565b6000602082840312156125a957600080fd5b60006125b784828501612349565b91505092915050565b6000806000606084860312156125d557600080fd5b600084013567ffffffffffffffff8111156125ef57600080fd5b6125fb86828701612388565b935050602061260c868287016123b2565b925050604084013567ffffffffffffffff81111561262957600080fd5b61263586828701612388565b9150509250925092565b60006020828403121561265157600080fd5b600061265f848285016123b2565b91505092915050565b61267181613300565b82525050565b61268081613300565b82525050565b61268f81613312565b82525050565b60006126a0826131f1565b6126aa8185613207565b93506126ba818560208601613383565b6126c38161351e565b840191505092915050565b60006126d9826131fc565b6126e38185613218565b93506126f3818560208601613383565b6126fc8161351e565b840191505092915050565b6000612712826131fc565b61271c8185613229565b935061272c818560208601613383565b6127358161351e565b840191505092915050565b600061274b826131fc565b612755818561323a565b9350612765818560208601613383565b80840191505092915050565b600061277e602b83613229565b91507f455243373231456e756d657261626c653a206f776e657220696e646578206f7560008301527f74206f6620626f756e64730000000000000000000000000000000000000000006020830152604082019050919050565b60006127e4603283613229565b91507f4552433732313a207472616e7366657220746f206e6f6e20455243373231526560008301527f63656976657220696d706c656d656e74657200000000000000000000000000006020830152604082019050919050565b600061284a601c83613229565b91507f4552433732313a20746f6b656e20616c7265616479206d696e746564000000006000830152602082019050919050565b600061288a602483613229565b91507f4552433732313a207472616e7366657220746f20746865207a65726f2061646460008301527f72657373000000000000000000000000000000000000000000000000000000006020830152604082019050919050565b60006128f0601983613229565b91507f4552433732313a20617070726f766520746f2063616c6c6572000000000000006000830152602082019050919050565b6000612930602c83613229565b91507f4552433732313a206f70657261746f7220717565727920666f72206e6f6e657860008301527f697374656e7420746f6b656e00000000000000000000000000000000000000006020830152604082019050919050565b6000612996603883613229565b91507f4552433732313a20617070726f76652063616c6c6572206973206e6f74206f7760008301527f6e6572206e6f7220617070726f76656420666f7220616c6c00000000000000006020830152604082019050919050565b60006129fc602a83613229565b91507f4552433732313a2062616c616e636520717565727920666f7220746865207a6560008301527f726f2061646472657373000000000000000000000000000000000000000000006020830152604082019050919050565b6000612a62602983613229565b91507f4552433732313a206f776e657220717565727920666f72206e6f6e657869737460008301527f656e7420746f6b656e00000000000000000000000000000000000000000000006020830152604082019050919050565b6000612ac8602083613229565b91507f4552433732313a206d696e7420746f20746865207a65726f20616464726573736000830152602082019050919050565b6000612b08602c83613229565b91507f4552433732313a20617070726f76656420717565727920666f72206e6f6e657860008301527f697374656e7420746f6b656e00000000000000000000000000000000000000006020830152604082019050919050565b6000612b6e602983613229565b91507f4552433732313a207472616e73666572206f6620746f6b656e2074686174206960008301527f73206e6f74206f776e00000000000000000000000000000000000000000000006020830152604082019050919050565b6000612bd4602f83613229565b91507f4552433732314d657461646174613a2055524920717565727920666f72206e6f60008301527f6e6578697374656e7420746f6b656e00000000000000000000000000000000006020830152604082019050919050565b6000612c3a602183613229565b91507f4552433732313a20617070726f76616c20746f2063757272656e74206f776e6560008301527f72000000000000000000000000000000000000000000000000000000000000006020830152604082019050919050565b6000612ca0603183613229565b91507f4552433732313a207472616e736665722063616c6c6572206973206e6f74206f60008301527f776e6572206e6f7220617070726f7665640000000000000000000000000000006020830152604082019050919050565b6000612d06602c83613229565b91507f455243373231456e756d657261626c653a20676c6f62616c20696e646578206f60008301527f7574206f6620626f756e647300000000000000000000000000000000000000006020830152604082019050919050565b600060a0830160008301518482036000860152612d7c82826126ce565b9150506020830151612d916020860182612ddc565b506040830151612da46040860182612ddc565b506060830151612db76060860182612668565b5060808301518482036080860152612dcf82826126ce565b9150508091505092915050565b612de58161336a565b82525050565b612df48161336a565b82525050565b6000612e068285612740565b9150612e128284612740565b91508190509392505050565b6000602082019050612e336000830184612677565b92915050565b6000608082019050612e4e6000830187612677565b612e5b6020830186612677565b612e686040830185612deb565b8181036060830152612e7a8184612695565b905095945050505050565b6000602082019050612e9a6000830184612686565b92915050565b60006020820190508181036000830152612eba8184612707565b905092915050565b600060a0820190508181036000830152612edc8188612707565b9050612eeb6020830187612deb565b612ef86040830186612deb565b612f056060830185612677565b8181036080830152612f178184612707565b90509695505050505050565b60006020820190508181036000830152612f3c81612771565b9050919050565b60006020820190508181036000830152612f5c816127d7565b9050919050565b60006020820190508181036000830152612f7c8161283d565b9050919050565b60006020820190508181036000830152612f9c8161287d565b9050919050565b60006020820190508181036000830152612fbc816128e3565b9050919050565b60006020820190508181036000830152612fdc81612923565b9050919050565b60006020820190508181036000830152612ffc81612989565b9050919050565b6000602082019050818103600083015261301c816129ef565b9050919050565b6000602082019050818103600083015261303c81612a55565b9050919050565b6000602082019050818103600083015261305c81612abb565b9050919050565b6000602082019050818103600083015261307c81612afb565b9050919050565b6000602082019050818103600083015261309c81612b61565b9050919050565b600060208201905081810360008301526130bc81612bc7565b9050919050565b600060208201905081810360008301526130dc81612c2d565b9050919050565b600060208201905081810360008301526130fc81612c93565b9050919050565b6000602082019050818103600083015261311c81612cf9565b9050919050565b6000602082019050818103600083015261313d8184612d5f565b905092915050565b600060208201905061315a6000830184612deb565b92915050565b6000604051905081810181811067ffffffffffffffff82111715613187576131866134ef565b5b8060405250919050565b600067ffffffffffffffff8211156131ac576131ab6134ef565b5b601f19601f8301169050602081019050919050565b600067ffffffffffffffff8211156131dc576131db6134ef565b5b601f19601f8301169050602081019050919050565b600081519050919050565b600081519050919050565b600082825260208201905092915050565b600082825260208201905092915050565b600082825260208201905092915050565b600081905092915050565b60006132508261336a565b915061325b8361336a565b9250827fffffffffffffffffffffffffffffffffffffffffffffffffffffffffffffffff038211156132905761328f613462565b5b828201905092915050565b60006132a68261336a565b91506132b18361336a565b9250826132c1576132c0613491565b5b828204905092915050565b60006132d78261336a565b91506132e28361336a565b9250828210156132f5576132f4613462565b5b828203905092915050565b600061330b8261334a565b9050919050565b60008115159050919050565b60007fffffffff0000000000000000000000000000000000000000000000000000000082169050919050565b600073ffffffffffffffffffffffffffffffffffffffff82169050919050565b6000819050919050565b82818337600083830152505050565b60005b838110156133a1578082015181840152602081019050613386565b838111156133b0576000848401525b50505050565b600060028204905060018216806133ce57607f821691505b602082108114156133e2576133e16134c0565b5b50919050565b60006133f38261336a565b91507fffffffffffffffffffffffffffffffffffffffffffffffffffffffffffffffff82141561342657613425613462565b5b600182019050919050565b600061343c8261336a565b91506134478361336a565b92508261345757613456613491565b5b828206905092915050565b7f4e487b7100000000000000000000000000000000000000000000000000000000600052601160045260246000fd5b7f4e487b7100000000000000000000000000000000000000000000000000000000600052601260045260246000fd5b7f4e487b7100000000000000000000000000000000000000000000000000000000600052602260045260246000fd5b7f4e487b7100000000000000000000000000000000000000000000000000000000600052604160045260246000fd5b6000601f19601f8301169050919050565b61353881613300565b811461354357600080fd5b50565b61354f81613312565b811461355a57600080fd5b50565b6135668161331e565b811461357157600080fd5b50565b61357d8161336a565b811461358857600080fd5b5056fea264697066735822122072be56251ca5874f898a9dc8f76e48d0394bfec045fb3e3eeb5456a5d32ee29764736f6c63430008000033",
  "immutableReferences": {},
  "source": "// SPDX-License-Identifier: MIT\npragma solidity >=0.4.22 <0.9.0;\n\nimport \"@openzeppelin/contracts/token/ERC721/ERC721.sol\";\nimport \"@openzeppelin/contracts/token/ERC721/extensions/ERC721Enumerable.sol\";\n\ncontract Books is ERC721Enumerable {\n    address public admin;\n    uint256 nextTokenId;\n\n    struct BookStruct {\n        string title;\n        uint256 id;\n        uint256 price;\n        address owner;\n        string url;\n    }\n\n    event bookCreated(\n        string name,\n        uint256 id,\n        uint256 price,\n        address owner,\n        string url\n    );\n\n    mapping(address => mapping(uint256 => BookStruct)) public booksByOwner;\n    mapping(uint256 => string) public tokenToUrl;\n\n    constructor() ERC721(\"Books\", \"BOOK\") {}\n\n    function createNewBook(\n        string memory _title,\n        uint256 _price,\n        string memory _url\n    ) external returns (BookStruct memory) {\n        _mint(address(this), nextTokenId);\n\n        BookStruct memory bs = BookStruct({\n            title: _title,\n            id: nextTokenId,\n            price: _price,\n            owner: address(this),\n            url: _url\n        });\n\n        booksByOwner[address(this)][nextTokenId] = bs;\n        tokenToUrl[nextTokenId] = _url;\n\n        nextTokenId = nextTokenId += 1;\n        return bs;\n    }\n\n    function _baseURI() internal pure override returns (string memory) {\n        return \"https://ipfs.io/ipfs/\";\n    }\n\n    // function getBaseURI() external pure returns (string memory) {\n    //     return \"https://ipfs.io/ipfs/\";\n    // }\n    // retrieve funds?\n}\n",
  "sourcePath": "/Volumes/APPLE HDD/reactprojects/books/contracts/Books.sol",
  "compiler": {
    "name": "solc",
    "version": "0.8.0+commit.c7dfd78e.Emscripten.clang"
  },
  "schemaVersion": "3.4.3",
  "updatedAt": "2021-10-03T07:10:45.926Z",
  "networkType": "ethereum",
  "devdoc": {
    "kind": "dev",
    "methods": {
      "approve(address,uint256)": {
        "details": "See {IERC721-approve}."
      },
      "balanceOf(address)": {
        "details": "See {IERC721-balanceOf}."
      },
      "getApproved(uint256)": {
        "details": "See {IERC721-getApproved}."
      },
      "isApprovedForAll(address,address)": {
        "details": "See {IERC721-isApprovedForAll}."
      },
      "name()": {
        "details": "See {IERC721Metadata-name}."
      },
      "ownerOf(uint256)": {
        "details": "See {IERC721-ownerOf}."
      },
      "safeTransferFrom(address,address,uint256)": {
        "details": "See {IERC721-safeTransferFrom}."
      },
      "safeTransferFrom(address,address,uint256,bytes)": {
        "details": "See {IERC721-safeTransferFrom}."
      },
      "setApprovalForAll(address,bool)": {
        "details": "See {IERC721-setApprovalForAll}."
      },
      "supportsInterface(bytes4)": {
        "details": "See {IERC165-supportsInterface}."
      },
      "symbol()": {
        "details": "See {IERC721Metadata-symbol}."
      },
      "tokenByIndex(uint256)": {
        "details": "See {IERC721Enumerable-tokenByIndex}."
      },
      "tokenOfOwnerByIndex(address,uint256)": {
        "details": "See {IERC721Enumerable-tokenOfOwnerByIndex}."
      },
      "tokenURI(uint256)": {
        "details": "See {IERC721Metadata-tokenURI}."
      },
      "totalSupply()": {
        "details": "See {IERC721Enumerable-totalSupply}."
      },
      "transferFrom(address,address,uint256)": {
        "details": "See {IERC721-transferFrom}."
      }
    },
    "version": 1
  },
  "userdoc": {
    "kind": "user",
    "methods": {},
    "version": 1
  }
}