{
  "contractName": "Books",
  "abi": [
    {
      "inputs": [],
      "stateMutability": "nonpayable",
      "type": "constructor"
    },
    {
      "anonymous": false,
      "inputs": [
        {
          "indexed": true,
          "internalType": "address",
          "name": "owner",
          "type": "address"
        },
        {
          "indexed": true,
          "internalType": "address",
          "name": "approved",
          "type": "address"
        },
        {
          "indexed": true,
          "internalType": "uint256",
          "name": "tokenId",
          "type": "uint256"
        }
      ],
      "name": "Approval",
      "type": "event"
    },
    {
      "anonymous": false,
      "inputs": [
        {
          "indexed": true,
          "internalType": "address",
          "name": "owner",
          "type": "address"
        },
        {
          "indexed": true,
          "internalType": "address",
          "name": "operator",
          "type": "address"
        },
        {
          "indexed": false,
          "internalType": "bool",
          "name": "approved",
          "type": "bool"
        }
      ],
      "name": "ApprovalForAll",
      "type": "event"
    },
    {
      "anonymous": false,
      "inputs": [
        {
          "indexed": true,
          "internalType": "address",
          "name": "from",
          "type": "address"
        },
        {
          "indexed": true,
          "internalType": "address",
          "name": "to",
          "type": "address"
        },
        {
          "indexed": true,
          "internalType": "uint256",
          "name": "tokenId",
          "type": "uint256"
        }
      ],
      "name": "Transfer",
      "type": "event"
    },
    {
      "anonymous": false,
      "inputs": [
        {
          "indexed": false,
          "internalType": "string",
          "name": "name",
          "type": "string"
        },
        {
          "indexed": false,
          "internalType": "uint256",
          "name": "id",
          "type": "uint256"
        },
        {
          "indexed": false,
          "internalType": "uint256",
          "name": "price",
          "type": "uint256"
        },
        {
          "indexed": false,
          "internalType": "address",
          "name": "owner",
          "type": "address"
        }
      ],
      "name": "bookCreated",
      "type": "event"
    },
    {
      "inputs": [],
      "name": "admin",
      "outputs": [
        {
          "internalType": "address",
          "name": "",
          "type": "address"
        }
      ],
      "stateMutability": "view",
      "type": "function",
      "constant": true
    },
    {
      "inputs": [
        {
          "internalType": "address",
          "name": "to",
          "type": "address"
        },
        {
          "internalType": "uint256",
          "name": "tokenId",
          "type": "uint256"
        }
      ],
      "name": "approve",
      "outputs": [],
      "stateMutability": "nonpayable",
      "type": "function"
    },
    {
      "inputs": [
        {
          "internalType": "address",
          "name": "owner",
          "type": "address"
        }
      ],
      "name": "balanceOf",
      "outputs": [
        {
          "internalType": "uint256",
          "name": "",
          "type": "uint256"
        }
      ],
      "stateMutability": "view",
      "type": "function",
      "constant": true
    },
    {
      "inputs": [
        {
          "internalType": "address",
          "name": "",
          "type": "address"
        },
        {
          "internalType": "uint256",
          "name": "",
          "type": "uint256"
        }
      ],
      "name": "booksByOwner",
      "outputs": [
        {
          "internalType": "string",
          "name": "title",
          "type": "string"
        },
        {
          "internalType": "uint256",
          "name": "id",
          "type": "uint256"
        },
        {
          "internalType": "uint256",
          "name": "price",
          "type": "uint256"
        },
        {
          "internalType": "address",
          "name": "owner",
          "type": "address"
        }
      ],
      "stateMutability": "view",
      "type": "function",
      "constant": true
    },
    {
      "inputs": [
        {
          "internalType": "uint256",
          "name": "tokenId",
          "type": "uint256"
        }
      ],
      "name": "getApproved",
      "outputs": [
        {
          "internalType": "address",
          "name": "",
          "type": "address"
        }
      ],
      "stateMutability": "view",
      "type": "function",
      "constant": true
    },
    {
      "inputs": [
        {
          "internalType": "address",
          "name": "owner",
          "type": "address"
        },
        {
          "internalType": "address",
          "name": "operator",
          "type": "address"
        }
      ],
      "name": "isApprovedForAll",
      "outputs": [
        {
          "internalType": "bool",
          "name": "",
          "type": "bool"
        }
      ],
      "stateMutability": "view",
      "type": "function",
      "constant": true
    },
    {
      "inputs": [],
      "name": "name",
      "outputs": [
        {
          "internalType": "string",
          "name": "",
          "type": "string"
        }
      ],
      "stateMutability": "view",
      "type": "function",
      "constant": true
    },
    {
      "inputs": [
        {
          "internalType": "uint256",
          "name": "tokenId",
          "type": "uint256"
        }
      ],
      "name": "ownerOf",
      "outputs": [
        {
          "internalType": "address",
          "name": "",
          "type": "address"
        }
      ],
      "stateMutability": "view",
      "type": "function",
      "constant": true
    },
    {
      "inputs": [
        {
          "internalType": "address",
          "name": "from",
          "type": "address"
        },
        {
          "internalType": "address",
          "name": "to",
          "type": "address"
        },
        {
          "internalType": "uint256",
          "name": "tokenId",
          "type": "uint256"
        }
      ],
      "name": "safeTransferFrom",
      "outputs": [],
      "stateMutability": "nonpayable",
      "type": "function"
    },
    {
      "inputs": [
        {
          "internalType": "address",
          "name": "from",
          "type": "address"
        },
        {
          "internalType": "address",
          "name": "to",
          "type": "address"
        },
        {
          "internalType": "uint256",
          "name": "tokenId",
          "type": "uint256"
        },
        {
          "internalType": "bytes",
          "name": "_data",
          "type": "bytes"
        }
      ],
      "name": "safeTransferFrom",
      "outputs": [],
      "stateMutability": "nonpayable",
      "type": "function"
    },
    {
      "inputs": [
        {
          "internalType": "address",
          "name": "operator",
          "type": "address"
        },
        {
          "internalType": "bool",
          "name": "approved",
          "type": "bool"
        }
      ],
      "name": "setApprovalForAll",
      "outputs": [],
      "stateMutability": "nonpayable",
      "type": "function"
    },
    {
      "inputs": [
        {
          "internalType": "bytes4",
          "name": "interfaceId",
          "type": "bytes4"
        }
      ],
      "name": "supportsInterface",
      "outputs": [
        {
          "internalType": "bool",
          "name": "",
          "type": "bool"
        }
      ],
      "stateMutability": "view",
      "type": "function",
      "constant": true
    },
    {
      "inputs": [],
      "name": "symbol",
      "outputs": [
        {
          "internalType": "string",
          "name": "",
          "type": "string"
        }
      ],
      "stateMutability": "view",
      "type": "function",
      "constant": true
    },
    {
      "inputs": [
        {
          "internalType": "uint256",
          "name": "index",
          "type": "uint256"
        }
      ],
      "name": "tokenByIndex",
      "outputs": [
        {
          "internalType": "uint256",
          "name": "",
          "type": "uint256"
        }
      ],
      "stateMutability": "view",
      "type": "function",
      "constant": true
    },
    {
      "inputs": [
        {
          "internalType": "address",
          "name": "owner",
          "type": "address"
        },
        {
          "internalType": "uint256",
          "name": "index",
          "type": "uint256"
        }
      ],
      "name": "tokenOfOwnerByIndex",
      "outputs": [
        {
          "internalType": "uint256",
          "name": "",
          "type": "uint256"
        }
      ],
      "stateMutability": "view",
      "type": "function",
      "constant": true
    },
    {
      "inputs": [
        {
          "internalType": "uint256",
          "name": "tokenId",
          "type": "uint256"
        }
      ],
      "name": "tokenURI",
      "outputs": [
        {
          "internalType": "string",
          "name": "",
          "type": "string"
        }
      ],
      "stateMutability": "view",
      "type": "function",
      "constant": true
    },
    {
      "inputs": [],
      "name": "totalSupply",
      "outputs": [
        {
          "internalType": "uint256",
          "name": "",
          "type": "uint256"
        }
      ],
      "stateMutability": "view",
      "type": "function",
      "constant": true
    },
    {
      "inputs": [
        {
          "internalType": "address",
          "name": "from",
          "type": "address"
        },
        {
          "internalType": "address",
          "name": "to",
          "type": "address"
        },
        {
          "internalType": "uint256",
          "name": "tokenId",
          "type": "uint256"
        }
      ],
      "name": "transferFrom",
      "outputs": [],
      "stateMutability": "nonpayable",
      "type": "function"
    },
    {
      "inputs": [
        {
          "internalType": "string",
          "name": "_title",
          "type": "string"
        },
        {
          "internalType": "uint256",
          "name": "_price",
          "type": "uint256"
        }
      ],
      "name": "createNewBook",
      "outputs": [
        {
          "components": [
            {
              "internalType": "string",
              "name": "title",
              "type": "string"
            },
            {
              "internalType": "uint256",
              "name": "id",
              "type": "uint256"
            },
            {
              "internalType": "uint256",
              "name": "price",
              "type": "uint256"
            },
            {
              "internalType": "address",
              "name": "owner",
              "type": "address"
            }
          ],
          "internalType": "struct Books.BookStruct",
          "name": "",
          "type": "tuple"
        }
      ],
      "stateMutability": "nonpayable",
      "type": "function"
    }
  ],
  "bytecode": "0x60806040523480156200001157600080fd5b506040518060400160405280600581526020017f426f6f6b730000000000000000000000000000000000000000000000000000008152506040518060400160405280600481526020017f424f4f4b00000000000000000000000000000000000000000000000000000000815250816000908051906020019062000096929190620000b8565b508060019080519060200190620000af929190620000b8565b505050620001cd565b828054620000c69062000168565b90600052602060002090601f016020900481019282620000ea576000855562000136565b82601f106200010557805160ff191683800117855562000136565b8280016001018555821562000136579182015b828111156200013557825182559160200191906001019062000118565b5b50905062000145919062000149565b5090565b5b80821115620001645760008160009055506001016200014a565b5090565b600060028204905060018216806200018157607f821691505b602082108114156200019857620001976200019e565b5b50919050565b7f4e487b7100000000000000000000000000000000000000000000000000000000600052602260045260246000fd5b6133a880620001dd6000396000f3fe608060405234801561001057600080fd5b50600436106101215760003560e01c80636352211e116100ad578063b88d4fde11610071578063b88d4fde14610343578063b8f0fef31461035f578063c87b56dd1461038f578063e985e9c5146103bf578063f851a440146103ef57610121565b80636352211e1461027657806370a08231146102a657806395d89b41146102d6578063a22cb465146102f4578063b191af601461031057610121565b806318160ddd116100f457806318160ddd146101c057806323b872dd146101de5780632f745c59146101fa57806342842e0e1461022a5780634f6ccce71461024657610121565b806301ffc9a71461012657806306fdde0314610156578063081812fc14610174578063095ea7b3146101a4575b600080fd5b610140600480360381019061013b91906123af565b61040d565b60405161014d9190612c81565b60405180910390f35b61015e610487565b60405161016b9190612c9c565b60405180910390f35b61018e60048036038101906101899190612455565b610519565b60405161019b9190612c1a565b60405180910390f35b6101be60048036038101906101b99190612373565b61059e565b005b6101c86106b6565b6040516101d59190612f2c565b60405180910390f35b6101f860048036038101906101f3919061226d565b6106c3565b005b610214600480360381019061020f9190612373565b610723565b6040516102219190612f2c565b60405180910390f35b610244600480360381019061023f919061226d565b6107c8565b005b610260600480360381019061025b9190612455565b6107e8565b60405161026d9190612f2c565b60405180910390f35b610290600480360381019061028b9190612455565b61087f565b60405161029d9190612c1a565b60405180910390f35b6102c060048036038101906102bb9190612208565b610931565b6040516102cd9190612f2c565b60405180910390f35b6102de6109e9565b6040516102eb9190612c9c565b60405180910390f35b61030e60048036038101906103099190612337565b610a7b565b005b61032a60048036038101906103259190612373565b610bfc565b60405161033a9493929190612cbe565b60405180910390f35b61035d600480360381019061035891906122bc565b610ce1565b005b61037960048036038101906103749190612401565b610d43565b6040516103869190612f0a565b60405180910390f35b6103a960048036038101906103a49190612455565b610e8b565b6040516103b69190612c9c565b60405180910390f35b6103d960048036038101906103d49190612231565b610f32565b6040516103e69190612c81565b60405180910390f35b6103f7610fc6565b6040516104049190612c1a565b60405180910390f35b60007f780e9d63000000000000000000000000000000000000000000000000000000007bffffffffffffffffffffffffffffffffffffffffffffffffffffffff1916827bffffffffffffffffffffffffffffffffffffffffffffffffffffffff19161480610480575061047f82610fec565b5b9050919050565b6060600080546104969061319d565b80601f01602080910402602001604051908101604052809291908181526020018280546104c29061319d565b801561050f5780601f106104e45761010080835404028352916020019161050f565b820191906000526020600020905b8154815290600101906020018083116104f257829003601f168201915b5050505050905090565b6000610524826110ce565b610563576040517f08c379a000000000000000000000000000000000000000000000000000000000815260040161055a90612e4a565b60405180910390fd5b6004600083815260200190815260200160002060009054906101000a900473ffffffffffffffffffffffffffffffffffffffff169050919050565b60006105a98261087f565b90508073ffffffffffffffffffffffffffffffffffffffff168373ffffffffffffffffffffffffffffffffffffffff16141561061a576040517f08c379a000000000000000000000000000000000000000000000000000000000815260040161061190612eaa565b60405180910390fd5b8073ffffffffffffffffffffffffffffffffffffffff1661063961113a565b73ffffffffffffffffffffffffffffffffffffffff16148061066857506106678161066261113a565b610f32565b5b6106a7576040517f08c379a000000000000000000000000000000000000000000000000000000000815260040161069e90612dca565b60405180910390fd5b6106b18383611142565b505050565b6000600880549050905090565b6106d46106ce61113a565b826111fb565b610713576040517f08c379a000000000000000000000000000000000000000000000000000000000815260040161070a90612eca565b60405180910390fd5b61071e8383836112d9565b505050565b600061072e83610931565b821061076f576040517f08c379a000000000000000000000000000000000000000000000000000000000815260040161076690612d0a565b60405180910390fd5b600660008473ffffffffffffffffffffffffffffffffffffffff1673ffffffffffffffffffffffffffffffffffffffff168152602001908152602001600020600083815260200190815260200160002054905092915050565b6107e383838360405180602001604052806000815250610ce1565b505050565b60006107f26106b6565b8210610833576040517f08c379a000000000000000000000000000000000000000000000000000000000815260040161082a90612eea565b60405180910390fd5b6008828154811061086d577f4e487b7100000000000000000000000000000000000000000000000000000000600052603260045260246000fd5b90600052602060002001549050919050565b6000806002600084815260200190815260200160002060009054906101000a900473ffffffffffffffffffffffffffffffffffffffff169050600073ffffffffffffffffffffffffffffffffffffffff168173ffffffffffffffffffffffffffffffffffffffff161415610928576040517f08c379a000000000000000000000000000000000000000000000000000000000815260040161091f90612e0a565b60405180910390fd5b80915050919050565b60008073ffffffffffffffffffffffffffffffffffffffff168273ffffffffffffffffffffffffffffffffffffffff1614156109a2576040517f08c379a000000000000000000000000000000000000000000000000000000000815260040161099990612dea565b60405180910390fd5b600360008373ffffffffffffffffffffffffffffffffffffffff1673ffffffffffffffffffffffffffffffffffffffff168152602001908152602001600020549050919050565b6060600180546109f89061319d565b80601f0160208091040260200160405190810160405280929190818152602001828054610a249061319d565b8015610a715780601f10610a4657610100808354040283529160200191610a71565b820191906000526020600020905b815481529060010190602001808311610a5457829003601f168201915b5050505050905090565b610a8361113a565b73ffffffffffffffffffffffffffffffffffffffff168273ffffffffffffffffffffffffffffffffffffffff161415610af1576040517f08c379a0000000000000000000000000000000000000000000000000000000008152600401610ae890612d8a565b60405180910390fd5b8060056000610afe61113a565b73ffffffffffffffffffffffffffffffffffffffff1673ffffffffffffffffffffffffffffffffffffffff16815260200190815260200160002060008473ffffffffffffffffffffffffffffffffffffffff1673ffffffffffffffffffffffffffffffffffffffff16815260200190815260200160002060006101000a81548160ff0219169083151502179055508173ffffffffffffffffffffffffffffffffffffffff16610bab61113a565b73ffffffffffffffffffffffffffffffffffffffff167f17307eab39ab6107e8899845ad3d59bd9653f200f220920489ca2b5937696c3183604051610bf09190612c81565b60405180910390a35050565b600c60205281600052604060002060205280600052604060002060009150915050806000018054610c2c9061319d565b80601f0160208091040260200160405190810160405280929190818152602001828054610c589061319d565b8015610ca55780601f10610c7a57610100808354040283529160200191610ca5565b820191906000526020600020905b815481529060010190602001808311610c8857829003601f168201915b5050505050908060010154908060020154908060030160009054906101000a900473ffffffffffffffffffffffffffffffffffffffff16905084565b610cf2610cec61113a565b836111fb565b610d31576040517f08c379a0000000000000000000000000000000000000000000000000000000008152600401610d2890612eca565b60405180910390fd5b610d3d84848484611535565b50505050565b610d4b611fee565b610d5730600b54611591565b60006040518060800160405280858152602001600b5481526020018481526020013073ffffffffffffffffffffffffffffffffffffffff16815250905080600c60003073ffffffffffffffffffffffffffffffffffffffff1673ffffffffffffffffffffffffffffffffffffffff1681526020019081526020016000206000600b5481526020019081526020016000206000820151816000019080519060200190610e0392919061202c565b50602082015181600101556040820151816002015560608201518160030160006101000a81548173ffffffffffffffffffffffffffffffffffffffff021916908373ffffffffffffffffffffffffffffffffffffffff1602179055509050506001600b6000828254610e75919061302c565b925050819055600b819055508091505092915050565b6060610e96826110ce565b610ed5576040517f08c379a0000000000000000000000000000000000000000000000000000000008152600401610ecc90612e8a565b60405180910390fd5b6000610edf61175f565b90506000815111610eff5760405180602001604052806000815250610f2a565b80610f098461179c565b604051602001610f1a929190612bf6565b6040516020818303038152906040525b915050919050565b6000600560008473ffffffffffffffffffffffffffffffffffffffff1673ffffffffffffffffffffffffffffffffffffffff16815260200190815260200160002060008373ffffffffffffffffffffffffffffffffffffffff1673ffffffffffffffffffffffffffffffffffffffff16815260200190815260200160002060009054906101000a900460ff16905092915050565b600a60009054906101000a900473ffffffffffffffffffffffffffffffffffffffff1681565b60007f80ac58cd000000000000000000000000000000000000000000000000000000007bffffffffffffffffffffffffffffffffffffffffffffffffffffffff1916827bffffffffffffffffffffffffffffffffffffffffffffffffffffffff191614806110b757507f5b5e139f000000000000000000000000000000000000000000000000000000007bffffffffffffffffffffffffffffffffffffffffffffffffffffffff1916827bffffffffffffffffffffffffffffffffffffffffffffffffffffffff1916145b806110c757506110c682611949565b5b9050919050565b60008073ffffffffffffffffffffffffffffffffffffffff166002600084815260200190815260200160002060009054906101000a900473ffffffffffffffffffffffffffffffffffffffff1673ffffffffffffffffffffffffffffffffffffffff1614159050919050565b600033905090565b816004600083815260200190815260200160002060006101000a81548173ffffffffffffffffffffffffffffffffffffffff021916908373ffffffffffffffffffffffffffffffffffffffff160217905550808273ffffffffffffffffffffffffffffffffffffffff166111b58361087f565b73ffffffffffffffffffffffffffffffffffffffff167f8c5be1e5ebec7d5bd14f71427d1e84f3dd0314c0f7b2291e5b200ac8c7c3b92560405160405180910390a45050565b6000611206826110ce565b611245576040517f08c379a000000000000000000000000000000000000000000000000000000000815260040161123c90612daa565b60405180910390fd5b60006112508361087f565b90508073ffffffffffffffffffffffffffffffffffffffff168473ffffffffffffffffffffffffffffffffffffffff1614806112bf57508373ffffffffffffffffffffffffffffffffffffffff166112a784610519565b73ffffffffffffffffffffffffffffffffffffffff16145b806112d057506112cf8185610f32565b5b91505092915050565b8273ffffffffffffffffffffffffffffffffffffffff166112f98261087f565b73ffffffffffffffffffffffffffffffffffffffff161461134f576040517f08c379a000000000000000000000000000000000000000000000000000000000815260040161134690612e6a565b60405180910390fd5b600073ffffffffffffffffffffffffffffffffffffffff168273ffffffffffffffffffffffffffffffffffffffff1614156113bf576040517f08c379a00000000000000000000000000000000000000000000000000000000081526004016113b690612d6a565b60405180910390fd5b6113ca8383836119b3565b6113d5600082611142565b6001600360008573ffffffffffffffffffffffffffffffffffffffff1673ffffffffffffffffffffffffffffffffffffffff168152602001908152602001600020600082825461142591906130b3565b925050819055506001600360008473ffffffffffffffffffffffffffffffffffffffff1673ffffffffffffffffffffffffffffffffffffffff168152602001908152602001600020600082825461147c919061302c565b92505081905550816002600083815260200190815260200160002060006101000a81548173ffffffffffffffffffffffffffffffffffffffff021916908373ffffffffffffffffffffffffffffffffffffffff160217905550808273ffffffffffffffffffffffffffffffffffffffff168473ffffffffffffffffffffffffffffffffffffffff167fddf252ad1be2c89b69c2b068fc378daa952ba7f163c4a11628f55a4df523b3ef60405160405180910390a4505050565b6115408484846112d9565b61154c84848484611ac7565b61158b576040517f08c379a000000000000000000000000000000000000000000000000000000000815260040161158290612d2a565b60405180910390fd5b50505050565b600073ffffffffffffffffffffffffffffffffffffffff168273ffffffffffffffffffffffffffffffffffffffff161415611601576040517f08c379a00000000000000000000000000000000000000000000000000000000081526004016115f890612e2a565b60405180910390fd5b61160a816110ce565b1561164a576040517f08c379a000000000000000000000000000000000000000000000000000000000815260040161164190612d4a565b60405180910390fd5b611656600083836119b3565b6001600360008473ffffffffffffffffffffffffffffffffffffffff1673ffffffffffffffffffffffffffffffffffffffff16815260200190815260200160002060008282546116a6919061302c565b92505081905550816002600083815260200190815260200160002060006101000a81548173ffffffffffffffffffffffffffffffffffffffff021916908373ffffffffffffffffffffffffffffffffffffffff160217905550808273ffffffffffffffffffffffffffffffffffffffff16600073ffffffffffffffffffffffffffffffffffffffff167fddf252ad1be2c89b69c2b068fc378daa952ba7f163c4a11628f55a4df523b3ef60405160405180910390a45050565b60606040518060400160405280601581526020017f68747470733a2f2f697066732e696f2f697066732f0000000000000000000000815250905090565b606060008214156117e4576040518060400160405280600181526020017f30000000000000000000000000000000000000000000000000000000000000008152509050611944565b600082905060005b600082146118165780806117ff906131cf565b915050600a8261180f9190613082565b91506117ec565b60008167ffffffffffffffff811115611858577f4e487b7100000000000000000000000000000000000000000000000000000000600052604160045260246000fd5b6040519080825280601f01601f19166020018201604052801561188a5781602001600182028036833780820191505090505b5090505b6000851461193d576001826118a391906130b3565b9150600a856118b29190613218565b60306118be919061302c565b60f81b8183815181106118fa577f4e487b7100000000000000000000000000000000000000000000000000000000600052603260045260246000fd5b60200101907effffffffffffffffffffffffffffffffffffffffffffffffffffffffffffff1916908160001a905350600a856119369190613082565b945061188e565b8093505050505b919050565b60007f01ffc9a7000000000000000000000000000000000000000000000000000000007bffffffffffffffffffffffffffffffffffffffffffffffffffffffff1916827bffffffffffffffffffffffffffffffffffffffffffffffffffffffff1916149050919050565b6119be838383611c5e565b600073ffffffffffffffffffffffffffffffffffffffff168373ffffffffffffffffffffffffffffffffffffffff161415611a01576119fc81611c63565b611a40565b8173ffffffffffffffffffffffffffffffffffffffff168373ffffffffffffffffffffffffffffffffffffffff1614611a3f57611a3e8382611cac565b5b5b600073ffffffffffffffffffffffffffffffffffffffff168273ffffffffffffffffffffffffffffffffffffffff161415611a8357611a7e81611e19565b611ac2565b8273ffffffffffffffffffffffffffffffffffffffff168273ffffffffffffffffffffffffffffffffffffffff1614611ac157611ac08282611f5c565b5b5b505050565b6000611ae88473ffffffffffffffffffffffffffffffffffffffff16611fdb565b15611c51578373ffffffffffffffffffffffffffffffffffffffff1663150b7a02611b1161113a565b8786866040518563ffffffff1660e01b8152600401611b339493929190612c35565b602060405180830381600087803b158015611b4d57600080fd5b505af1925050508015611b7e57506040513d601f19601f82011682018060405250810190611b7b91906123d8565b60015b611c01573d8060008114611bae576040519150601f19603f3d011682016040523d82523d6000602084013e611bb3565b606091505b50600081511415611bf9576040517f08c379a0000000000000000000000000000000000000000000000000000000008152600401611bf090612d2a565b60405180910390fd5b805181602001fd5b63150b7a0260e01b7bffffffffffffffffffffffffffffffffffffffffffffffffffffffff1916817bffffffffffffffffffffffffffffffffffffffffffffffffffffffff191614915050611c56565b600190505b949350505050565b505050565b6008805490506009600083815260200190815260200160002081905550600881908060018154018082558091505060019003906000526020600020016000909190919091505550565b60006001611cb984610931565b611cc391906130b3565b9050600060076000848152602001908152602001600020549050818114611da8576000600660008673ffffffffffffffffffffffffffffffffffffffff1673ffffffffffffffffffffffffffffffffffffffff168152602001908152602001600020600084815260200190815260200160002054905080600660008773ffffffffffffffffffffffffffffffffffffffff1673ffffffffffffffffffffffffffffffffffffffff168152602001908152602001600020600084815260200190815260200160002081905550816007600083815260200190815260200160002081905550505b6007600084815260200190815260200160002060009055600660008573ffffffffffffffffffffffffffffffffffffffff1673ffffffffffffffffffffffffffffffffffffffff16815260200190815260200160002060008381526020019081526020016000206000905550505050565b60006001600880549050611e2d91906130b3565b9050600060096000848152602001908152602001600020549050600060088381548110611e83577f4e487b7100000000000000000000000000000000000000000000000000000000600052603260045260246000fd5b906000526020600020015490508060088381548110611ecb577f4e487b7100000000000000000000000000000000000000000000000000000000600052603260045260246000fd5b906000526020600020018190555081600960008381526020019081526020016000208190555060096000858152602001908152602001600020600090556008805480611f40577f4e487b7100000000000000000000000000000000000000000000000000000000600052603160045260246000fd5b6001900381819060005260206000200160009055905550505050565b6000611f6783610931565b905081600660008573ffffffffffffffffffffffffffffffffffffffff1673ffffffffffffffffffffffffffffffffffffffff168152602001908152602001600020600083815260200190815260200160002081905550806007600084815260200190815260200160002081905550505050565b600080823b905060008111915050919050565b6040518060800160405280606081526020016000815260200160008152602001600073ffffffffffffffffffffffffffffffffffffffff1681525090565b8280546120389061319d565b90600052602060002090601f01602090048101928261205a57600085556120a1565b82601f1061207357805160ff19168380011785556120a1565b828001600101855582156120a1579182015b828111156120a0578251825591602001919060010190612085565b5b5090506120ae91906120b2565b5090565b5b808211156120cb5760008160009055506001016120b3565b5090565b60006120e26120dd84612f78565b612f47565b9050828152602081018484840111156120fa57600080fd5b61210584828561315b565b509392505050565b600061212061211b84612fa8565b612f47565b90508281526020810184848401111561213857600080fd5b61214384828561315b565b509392505050565b60008135905061215a81613316565b92915050565b60008135905061216f8161332d565b92915050565b60008135905061218481613344565b92915050565b60008151905061219981613344565b92915050565b600082601f8301126121b057600080fd5b81356121c08482602086016120cf565b91505092915050565b600082601f8301126121da57600080fd5b81356121ea84826020860161210d565b91505092915050565b6000813590506122028161335b565b92915050565b60006020828403121561221a57600080fd5b60006122288482850161214b565b91505092915050565b6000806040838503121561224457600080fd5b60006122528582860161214b565b92505060206122638582860161214b565b9150509250929050565b60008060006060848603121561228257600080fd5b60006122908682870161214b565b93505060206122a18682870161214b565b92505060406122b2868287016121f3565b9150509250925092565b600080600080608085870312156122d257600080fd5b60006122e08782880161214b565b94505060206122f18782880161214b565b9350506040612302878288016121f3565b925050606085013567ffffffffffffffff81111561231f57600080fd5b61232b8782880161219f565b91505092959194509250565b6000806040838503121561234a57600080fd5b60006123588582860161214b565b925050602061236985828601612160565b9150509250929050565b6000806040838503121561238657600080fd5b60006123948582860161214b565b92505060206123a5858286016121f3565b9150509250929050565b6000602082840312156123c157600080fd5b60006123cf84828501612175565b91505092915050565b6000602082840312156123ea57600080fd5b60006123f88482850161218a565b91505092915050565b6000806040838503121561241457600080fd5b600083013567ffffffffffffffff81111561242e57600080fd5b61243a858286016121c9565b925050602061244b858286016121f3565b9150509250929050565b60006020828403121561246757600080fd5b6000612475848285016121f3565b91505092915050565b612487816130e7565b82525050565b612496816130e7565b82525050565b6124a5816130f9565b82525050565b60006124b682612fd8565b6124c08185612fee565b93506124d081856020860161316a565b6124d981613305565b840191505092915050565b60006124ef82612fe3565b6124f98185612fff565b935061250981856020860161316a565b61251281613305565b840191505092915050565b600061252882612fe3565b6125328185613010565b935061254281856020860161316a565b61254b81613305565b840191505092915050565b600061256182612fe3565b61256b8185613021565b935061257b81856020860161316a565b80840191505092915050565b6000612594602b83613010565b91507f455243373231456e756d657261626c653a206f776e657220696e646578206f7560008301527f74206f6620626f756e64730000000000000000000000000000000000000000006020830152604082019050919050565b60006125fa603283613010565b91507f4552433732313a207472616e7366657220746f206e6f6e20455243373231526560008301527f63656976657220696d706c656d656e74657200000000000000000000000000006020830152604082019050919050565b6000612660601c83613010565b91507f4552433732313a20746f6b656e20616c7265616479206d696e746564000000006000830152602082019050919050565b60006126a0602483613010565b91507f4552433732313a207472616e7366657220746f20746865207a65726f2061646460008301527f72657373000000000000000000000000000000000000000000000000000000006020830152604082019050919050565b6000612706601983613010565b91507f4552433732313a20617070726f766520746f2063616c6c6572000000000000006000830152602082019050919050565b6000612746602c83613010565b91507f4552433732313a206f70657261746f7220717565727920666f72206e6f6e657860008301527f697374656e7420746f6b656e00000000000000000000000000000000000000006020830152604082019050919050565b60006127ac603883613010565b91507f4552433732313a20617070726f76652063616c6c6572206973206e6f74206f7760008301527f6e6572206e6f7220617070726f76656420666f7220616c6c00000000000000006020830152604082019050919050565b6000612812602a83613010565b91507f4552433732313a2062616c616e636520717565727920666f7220746865207a6560008301527f726f2061646472657373000000000000000000000000000000000000000000006020830152604082019050919050565b6000612878602983613010565b91507f4552433732313a206f776e657220717565727920666f72206e6f6e657869737460008301527f656e7420746f6b656e00000000000000000000000000000000000000000000006020830152604082019050919050565b60006128de602083613010565b91507f4552433732313a206d696e7420746f20746865207a65726f20616464726573736000830152602082019050919050565b600061291e602c83613010565b91507f4552433732313a20617070726f76656420717565727920666f72206e6f6e657860008301527f697374656e7420746f6b656e00000000000000000000000000000000000000006020830152604082019050919050565b6000612984602983613010565b91507f4552433732313a207472616e73666572206f6620746f6b656e2074686174206960008301527f73206e6f74206f776e00000000000000000000000000000000000000000000006020830152604082019050919050565b60006129ea602f83613010565b91507f4552433732314d657461646174613a2055524920717565727920666f72206e6f60008301527f6e6578697374656e7420746f6b656e00000000000000000000000000000000006020830152604082019050919050565b6000612a50602183613010565b91507f4552433732313a20617070726f76616c20746f2063757272656e74206f776e6560008301527f72000000000000000000000000000000000000000000000000000000000000006020830152604082019050919050565b6000612ab6603183613010565b91507f4552433732313a207472616e736665722063616c6c6572206973206e6f74206f60008301527f776e6572206e6f7220617070726f7665640000000000000000000000000000006020830152604082019050919050565b6000612b1c602c83613010565b91507f455243373231456e756d657261626c653a20676c6f62616c20696e646578206f60008301527f7574206f6620626f756e647300000000000000000000000000000000000000006020830152604082019050919050565b60006080830160008301518482036000860152612b9282826124e4565b9150506020830151612ba76020860182612bd8565b506040830151612bba6040860182612bd8565b506060830151612bcd606086018261247e565b508091505092915050565b612be181613151565b82525050565b612bf081613151565b82525050565b6000612c028285612556565b9150612c0e8284612556565b91508190509392505050565b6000602082019050612c2f600083018461248d565b92915050565b6000608082019050612c4a600083018761248d565b612c57602083018661248d565b612c646040830185612be7565b8181036060830152612c7681846124ab565b905095945050505050565b6000602082019050612c96600083018461249c565b92915050565b60006020820190508181036000830152612cb6818461251d565b905092915050565b60006080820190508181036000830152612cd8818761251d565b9050612ce76020830186612be7565b612cf46040830185612be7565b612d01606083018461248d565b95945050505050565b60006020820190508181036000830152612d2381612587565b9050919050565b60006020820190508181036000830152612d43816125ed565b9050919050565b60006020820190508181036000830152612d6381612653565b9050919050565b60006020820190508181036000830152612d8381612693565b9050919050565b60006020820190508181036000830152612da3816126f9565b9050919050565b60006020820190508181036000830152612dc381612739565b9050919050565b60006020820190508181036000830152612de38161279f565b9050919050565b60006020820190508181036000830152612e0381612805565b9050919050565b60006020820190508181036000830152612e238161286b565b9050919050565b60006020820190508181036000830152612e43816128d1565b9050919050565b60006020820190508181036000830152612e6381612911565b9050919050565b60006020820190508181036000830152612e8381612977565b9050919050565b60006020820190508181036000830152612ea3816129dd565b9050919050565b60006020820190508181036000830152612ec381612a43565b9050919050565b60006020820190508181036000830152612ee381612aa9565b9050919050565b60006020820190508181036000830152612f0381612b0f565b9050919050565b60006020820190508181036000830152612f248184612b75565b905092915050565b6000602082019050612f416000830184612be7565b92915050565b6000604051905081810181811067ffffffffffffffff82111715612f6e57612f6d6132d6565b5b8060405250919050565b600067ffffffffffffffff821115612f9357612f926132d6565b5b601f19601f8301169050602081019050919050565b600067ffffffffffffffff821115612fc357612fc26132d6565b5b601f19601f8301169050602081019050919050565b600081519050919050565b600081519050919050565b600082825260208201905092915050565b600082825260208201905092915050565b600082825260208201905092915050565b600081905092915050565b600061303782613151565b915061304283613151565b9250827fffffffffffffffffffffffffffffffffffffffffffffffffffffffffffffffff0382111561307757613076613249565b5b828201905092915050565b600061308d82613151565b915061309883613151565b9250826130a8576130a7613278565b5b828204905092915050565b60006130be82613151565b91506130c983613151565b9250828210156130dc576130db613249565b5b828203905092915050565b60006130f282613131565b9050919050565b60008115159050919050565b60007fffffffff0000000000000000000000000000000000000000000000000000000082169050919050565b600073ffffffffffffffffffffffffffffffffffffffff82169050919050565b6000819050919050565b82818337600083830152505050565b60005b8381101561318857808201518184015260208101905061316d565b83811115613197576000848401525b50505050565b600060028204905060018216806131b557607f821691505b602082108114156131c9576131c86132a7565b5b50919050565b60006131da82613151565b91507fffffffffffffffffffffffffffffffffffffffffffffffffffffffffffffffff82141561320d5761320c613249565b5b600182019050919050565b600061322382613151565b915061322e83613151565b92508261323e5761323d613278565b5b828206905092915050565b7f4e487b7100000000000000000000000000000000000000000000000000000000600052601160045260246000fd5b7f4e487b7100000000000000000000000000000000000000000000000000000000600052601260045260246000fd5b7f4e487b7100000000000000000000000000000000000000000000000000000000600052602260045260246000fd5b7f4e487b7100000000000000000000000000000000000000000000000000000000600052604160045260246000fd5b6000601f19601f8301169050919050565b61331f816130e7565b811461332a57600080fd5b50565b613336816130f9565b811461334157600080fd5b50565b61334d81613105565b811461335857600080fd5b50565b61336481613151565b811461336f57600080fd5b5056fea2646970667358221220366de172513148c748ee14a69e4e44b54dbfc0b3be45e6f5e287530a5fe7d2e264736f6c63430008000033",
  "immutableReferences": {},
  "source": "// SPDX-License-Identifier: MIT\npragma solidity >=0.4.22 <0.9.0;\n\nimport \"@openzeppelin/contracts/token/ERC721/ERC721.sol\";\nimport \"@openzeppelin/contracts/token/ERC721/extensions/ERC721Enumerable.sol\";\n\ncontract Books is ERC721Enumerable {\n    address public admin;\n    uint256 nextTokenId;\n\n    struct BookStruct {\n        string title;\n        uint256 id;\n        uint256 price;\n        address owner;\n    }\n\n    event bookCreated(string name, uint256 id, uint256 price, address owner);\n\n    mapping(address => mapping(uint256 => BookStruct)) public booksByOwner;\n\n    constructor() ERC721(\"Books\", \"BOOK\") {}\n\n    function createNewBook(string memory _title, uint256 _price)\n        external\n        returns (BookStruct memory)\n    {\n        _mint(address(this), nextTokenId);\n\n        BookStruct memory bs = BookStruct({\n            title: _title,\n            id: nextTokenId,\n            price: _price,\n            owner: address(this)\n        });\n\n        booksByOwner[address(this)][nextTokenId] = bs;\n\n        nextTokenId = nextTokenId += 1;\n        return bs;\n    }\n\n    function _baseURI() internal pure override returns (string memory) {\n        return \"https://ipfs.io/ipfs/\";\n    }\n\n    // retrieve funds?\n}\n",
  "sourcePath": "/Volumes/APPLE HDD/reactprojects/books/contracts/Books.sol",
  "compiler": {
    "name": "solc",
    "version": "0.8.0+commit.c7dfd78e.Emscripten.clang"
  },
  "schemaVersion": "3.4.3",
  "updatedAt": "2021-10-02T17:45:38.417Z",
  "networkType": "ethereum",
  "devdoc": {
    "kind": "dev",
    "methods": {
      "approve(address,uint256)": {
        "details": "See {IERC721-approve}."
      },
      "balanceOf(address)": {
        "details": "See {IERC721-balanceOf}."
      },
      "getApproved(uint256)": {
        "details": "See {IERC721-getApproved}."
      },
      "isApprovedForAll(address,address)": {
        "details": "See {IERC721-isApprovedForAll}."
      },
      "name()": {
        "details": "See {IERC721Metadata-name}."
      },
      "ownerOf(uint256)": {
        "details": "See {IERC721-ownerOf}."
      },
      "safeTransferFrom(address,address,uint256)": {
        "details": "See {IERC721-safeTransferFrom}."
      },
      "safeTransferFrom(address,address,uint256,bytes)": {
        "details": "See {IERC721-safeTransferFrom}."
      },
      "setApprovalForAll(address,bool)": {
        "details": "See {IERC721-setApprovalForAll}."
      },
      "supportsInterface(bytes4)": {
        "details": "See {IERC165-supportsInterface}."
      },
      "symbol()": {
        "details": "See {IERC721Metadata-symbol}."
      },
      "tokenByIndex(uint256)": {
        "details": "See {IERC721Enumerable-tokenByIndex}."
      },
      "tokenOfOwnerByIndex(address,uint256)": {
        "details": "See {IERC721Enumerable-tokenOfOwnerByIndex}."
      },
      "tokenURI(uint256)": {
        "details": "See {IERC721Metadata-tokenURI}."
      },
      "totalSupply()": {
        "details": "See {IERC721Enumerable-totalSupply}."
      },
      "transferFrom(address,address,uint256)": {
        "details": "See {IERC721-transferFrom}."
      }
    },
    "version": 1
  },
  "userdoc": {
    "kind": "user",
    "methods": {},
    "version": 1
  }
}